:020000040800F2
:1000000000C000201D8C0008558800085D8800088D
:10001000658800086D8800087588000800000000E9
:100020000000000000000000000000007D880008C3
:10003000898800080000000095880008A188000851
:10004000658C0008658C0008658C0008658C0008CC
:10005000658C0008658C0008658C0008658C0008BC
:10006000658C0008658C0008658C0008658C0008AC
:10007000658C0008658C0008658C0008658C00089C
:10008000658C0008658C0008658C0008658C00088C
:10009000658C0008658C0008658C0008658C00087C
:1000A000658C0008658C0008658C0008658C00086C
:1000B000AD880008658C0008658C0008658C000818
:1000C000658C0008658C0008658C0008658C00084C
:1000D000C1880008658C0008658C0008658C0008E4
:1000E000D5880008658C0008658C0008658C0008C0
:1000F000658C0008658C0008658C0008658C00081C
:10010000658C0008658C0008658C0008658C00080B
:10011000658C0008E5880008F9880008658C0008EF
:10012000658C0008658C0008658C0008658C0008EB
:1001300000000000000000000000000000000000BF
:1001400000000000000000000000000000000000AF
:10015000000000000000000000000000000000009F
:10016000000000000000000000000000000000008F
:10017000000000000000000000000000000000007F
:10018000000000000000000000000000000000006F
:10019000000000000000000000000000000000005F
:1001A000000000000000000000000000000000004F
:1001B000000000000000000000000000000000003F
:1001C000000000000000000000000000000000002F
:1001D000000000000000000000000000000000001F
:0401E0005FF8E0F1F3
:1001E80010B5054C237833B9044B13B10448AFF369
:1001F80000800123237010BD64020020000000006D
:10020800C41E010808B5034B1BB103490348AFF3EB
:10021800008008BD0000000068020020C41E01081C
:10022800034613F8012B002AFBD1181A013870472E
:1002380081F0004102E000BF83F0004330B54FEA8F
:1002480041044FEA430594EA050F08BF90EA020FFC
:100258001FBF54EA000C55EA020C7FEA645C7FEA8F
:10026800655C00F0E2804FEA5454D4EB5555B8BFB2
:100278006D420CDD2C4480EA020281EA030382EA23
:10028800000083EA010180EA020281EA0303362DB5
:1002980088BF30BD11F0004F4FEA01314FF4801C88
:1002A8004CEA113102D0404261EB410113F0004F9A
:1002B8004FEA03334CEA133302D0524263EB430351
:1002C80094EA050F00F0A780A4F10104D5F1200EEF
:1002D8000DDB02FA0EFC22FA05F2801841F100014A
:1002E80003FA0EF2801843FA05F359410EE0A5F11E
:1002F80020050EF1200E012A03FA0EFC28BF4CF04F
:10030800020C43FA05F3C01851EBE37101F0004504
:1003180007D54FF0000EDCF1000C7EEB00006EEB11
:100328000101B1F5801F1BD3B1F5001F0CD349089B
:100338005FEA30004FEA3C0C04F101044FEA4452F2
:1003480012F5800F80F09A80BCF1004F08BF5FEA79
:10035800500C50F1000041EB045141EA050130BD59
:100368005FEA4C0C404141EB0101013C28BFB1F56B
:10037800801FE9D291F0000F04BF01460020B1FAB6
:1003880081F308BF2033A3F10B03B3F120020CDA89
:100398000C3208DD02F1140CC2F10C0201FA0CF067
:1003A80021FA02F10CE002F11402D8BFC2F1200CCC
:1003B80001FA02F120FA0CFCDCBF41EA0C01904082
:1003C800E41AA2BF01EB0451294330BD6FEA0404CB
:1003D8001F3C1CDA0C340EDC04F11404C4F12002B6
:1003E80020FA04F001FA02F340EA030021FA04F3C8
:1003F80045EA030130BDC4F10C04C4F1200220FA1F
:1004080002F001FA04F340EA0300294630BD21FA5C
:1004180004F0294630BD94F0000F83F4801306BF22
:1004280081F480110134013D4EE77FEA645C18BF16
:100438007FEA655C29D094EA050F08BF90EA020FAD
:1004480005D054EA000C04BF1946104630BD91EAA5
:10045800030F1EBF0021002030BD5FEA545C05D1A8
:100468004000494128BF41F0004130BD14F58004E7
:100478003CBF01F5801130BD01F0004545F0FE415B
:1004880041F470014FF0000030BD7FEA645C1ABF90
:10049800194610467FEA655C1CBF0B46024650EAC7
:1004A800013406BF52EA033591EA030F41F40021F3
:1004B80030BD00BF90F0000F04BF0021704730B579
:1004C8004FF4806404F132044FF000054FF000014E
:1004D80050E700BF90F0000F04BF0021704730B50F
:1004E8004FF4806404F1320410F0004548BF4042E4
:1004F8004FF000013EE700BF42004FEAE2014FEA39
:1005080031014FEA02701FBF12F07F4393F07F4F13
:1005180081F06051704732F07F4208BF704793F016
:100528007F4F04BF41F40021704730B54FF4607429
:1005380001F0004521F000411CE700BF50EA01022C
:1005480008BF704730B54FF000050AE050EA0102D5
:1005580008BF704730B511F0004502D5404261EB45
:1005680041014FF4806404F132045FEA915C3FF486
:10057800D8AE4FF003025FEADC0C18BF03325FEA23
:10058800DC0C18BF033202EBDC02C2F1200300FAD4
:1005980003FC20FA02F001FA03FE40EA0E0021FAF9
:1005A80002F11444BDE600BF70B54FF0FF0C4CF4E7
:1005B800E06C1CEA11541DBF1CEA135594EA0C0F99
:1005C80095EA0C0F00F0DEF82C4481EA030621EAD4
:1005D8004C5123EA4C5350EA013518BF52EA03350F
:1005E80041F4801143F4801338D0A0FB02CE4FF0C1
:1005F8000005E1FB02E506F00042E0FB03E54FF0F1
:100608000006E1FB03569CF0000F18BF4EF0010EE8
:10061800A4F1FF04B6F5007F64F5407404D25FEAE4
:100628004E0E6D4146EB060642EAC62141EA555197
:100638004FEAC52040EA5E504FEACE2EB4F1FD0CD9
:1006480088BFBCF5E06F1ED8BEF1004F08BF5FEA57
:10065800500E50F1000041EB045170BD06F0004609
:1006680046EA010140EA020081EA0301B4EB5C04B6
:10067800C2BFD4EB0C0541EA045170BD41F48011AE
:100688004FF0000E013C00F3AB8014F1360FDEBFD3
:10069800002001F0004170BDC4F10004203C35DAAF
:1006A8000C341BDC04F11404C4F1200500FA05F332
:1006B80020FA04F001FA05F240EA020001F00042D3
:1006C80021F0004110EBD37021FA04F642EB060149
:1006D8005EEA430E08BF20EAD37070BDC4F10C0473
:1006E800C4F1200500FA04F320FA05F001FA04F237
:1006F80040EA020001F0004110EBD37041F1000123
:100708005EEA430E08BF20EAD37070BDC4F120052D
:1007180000FA05F24EEA020E20FA04F301FA05F295
:1007280043EA020321FA04F001F0004121FA04F23D
:1007380020EA020000EBD3705EEA430E08BF20EA0D
:10074800D37070BD94F0000F0FD101F00046400047
:1007580041EB010111F4801F08BF013CF7D041EAC9
:10076800060195F0000F18BF704703F000465200CD
:1007780043EB030313F4801F08BF013DF7D043EA9E
:100788000603704794EA0C0F0CEA135518BF95EA54
:100798000C0F0CD050EA410618BF52EA4306D1D1DB
:1007A80081EA030101F000414FF0000070BD50EAFA
:1007B800410606BF1046194652EA430619D094EA84
:1007C8000C0F02D150EA013613D195EA0C0F05D16E
:1007D80052EA03361CBF104619460AD181EA0301C2
:1007E80001F0004141F0FE4141F470014FF000007A
:1007F80070BD41F0FE4141F4780170BD70B54FF015
:10080800FF0C4CF4E06C1CEA11541DBF1CEA135594
:1008180094EA0C0F95EA0C0F00F0A7F8A4EB050476
:1008280081EA030E52EA03354FEA013100F088806D
:100838004FEA03334FF0805545EA131343EA126336
:100848004FEA022245EA111545EA10654FEA0026EB
:100858000EF000419D4208BF964244F1FD0404F5A4
:10086800407402D25B084FEA3202B61A65EB030500
:100878005B084FEA32024FF480104FF4002CB6EBBD
:10088800020E75EB030E22BFB61A754640EA0C003D
:100898005B084FEA3202B6EB020E75EB030E22BF7D
:1008A800B61A754640EA5C005B084FEA3202B6EBBE
:1008B800020E75EB030E22BFB61A754640EA9C007D
:1008C8005B084FEA3202B6EB020E75EB030E22BF4D
:1008D800B61A754640EADC0055EA060E18D04FEA0B
:1008E800051545EA16754FEA06164FEAC30343EAAB
:1008F80052734FEAC2025FEA1C1CC0D111F4801F78
:100908000BD141EA00014FF000004FF0004CB6E770
:1009180011F4801F04BF01430020B4F1FD0C88BF0F
:10092800BCF5E06F3FF6AFAEB5EB030C04BFB6EB1A
:10093800020C5FEA500C50F1000041EB045170BD0D
:100948000EF0004E4EEA113114EB5C04C2BFD4EB3A
:100958000C0541EA045170BD41F480114FF0000EBE
:10096800013C90E645EA060E8DE60CEA135594EA3A
:100978000C0F08BF95EA0C0F3FF43BAF94EA0C0F3D
:100988000AD150EA01347FF434AF95EA0C0F7FF4B2
:1009980025AF104619462CE795EA0C0F06D152EA06
:1009A80003353FF4FDAE1046194622E750EA4106EA
:1009B80018BF52EA43067FF4C5AE50EA41047FF4FB
:1009C8000DAF52EA43057FF4EBAE12E74FF0FF3C60
:1009D80006E000BF4FF0010C02E000BF4FF0010C31
:1009E8004DF804CD4FEA410C7FEA6C5C4FEA430CAA
:1009F80018BF7FEA6C5C1BD001B050EA410C0CBFF9
:100A080052EA430C91EA030F02BF90EA020F00205A
:100A1800704710F1000F91EA030F58BF994208BFC1
:100A280090422CBFD8176FEAE37040F0010070477E
:100A38004FEA410C7FEA6C5C02D150EA013C07D1D5
:100A48004FEA430C7FEA6C5CD6D152EA033CD3D020
:100A58005DF8040B704700BF8446104662468C461A
:100A68001946634600E000BF01B5FFF7B7FF00284D
:100A780048BF10F1000F01BD4DF808EDFFF7F4FF76
:100A88000CBF012000205DF808FB00BF4DF808ED01
:100A9800FFF7EAFF34BF012000205DF808FB00BF24
:100AA8004DF808EDFFF7E0FF94BF012000205DF846
:100AB80008FB00BF4DF808EDFFF7CEFF94BF0120FB
:100AC80000205DF808FB00BF4DF808EDFFF7C4FFF4
:100AD80034BF012000205DF808FB00BF4FEA410C3D
:100AE8007FEA6C5C02D150EA013C0AD14FEA430C20
:100AF8007FEA6C5C02D152EA033C02D14FF000005D
:100B080070474FF0010070474FEA410212F500129A
:100B180015D211D56FF47873B3EB625212D94FEA3C
:100B2800C12343F0004343EA505311F0004F23FA26
:100B380002F018BF404270474FF00000704750EA7B
:100B4800013005D111F0004008BF6FF00040704738
:100B58004FF00000704700BF4A0011D212F5001292
:100B680011D20DD56FF47873B3EB62520ED44FEAFD
:100B7800C12343F0004343EA505323FA02F070477D
:100B88004FF00000704750EA013002D14FF0FF30BB
:100B980070474FF0000070474FEA4102B2F1E0435E
:100BA80024BFB3F5001CDCF1FE5C0DD901F0004C4C
:100BB8004FEAC0024CEA5070B2F1004F40EB83009C
:100BC80008BF20F00100704711F0804F21D113F1C8
:100BD8003872BCBF01F00040704741F480114FEA01
:100BE8005252C2F11802C2F1200C10FA0CF320FA8A
:100BF80002F018BF40F001004FEAC1234FEAD323A7
:100C080003FA0CFC40EA0C0023FA02F34FEA430310
:100C1800CCE77FEA625307D150EA01331EBF4FF099
:100C2800FE4040F44000704701F0004040F0FE40B4
:100C380040F40000704700BF80F0004002E000BFB1
:100C480081F0004142001FBF5FEA410392EA030FAF
:100C58007FEA226C7FEA236C6AD04FEA1262D2EBF9
:100C68001363C1BFD218414048404140B8BF5B42FE
:100C7800192B88BF704710F0004F40F4000020F097
:100C88007F4018BF404211F0004F41F4000121F0AD
:100C98007F4118BF494292EA030F3FD0A2F10102F7
:100CA80041FA03FC10EB0C00C3F1200301FA03F135
:100CB80000F0004302D5494260EB4000B0F5000F58
:100CC80013D3B0F1807F06D340084FEA310102F117
:100CD8000102FE2A51D2B1F1004F40EBC25008BFC9
:100CE80020F0010040EA03007047490040EB000093
:100CF800013A28BFB0F5000FEDD2B0FA80FCACF194
:100D0800080CB2EB0C0200FA0CF0AABF00EBC250C0
:100D180052421843BCBFD0401843704792F0000FAE
:100D280081F4000106BF80F400000132013BB5E701
:100D38004FEA41037FEA226C18BF7FEA236C21D077
:100D480092EA030F04D092F0000F08BF08467047DC
:100D580090EA010F1CBF0020704712F07F4F04D1AA
:100D6800400028BF40F00040704712F100723CBFBD
:100D780000F50000704700F0004343F0FE4040F4E7
:100D8800000070477FEA226216BF08467FEA2363A5
:100D98000146420206BF5FEA412390EA010F40F490
:100DA800800070474FF0000304E000BF10F00043DC
:100DB80048BF40425FEA000C08BF704743F09643C3
:100DC80001464FF000001CE050EA010208BF7047DE
:100DD8004FF000030AE000BF50EA010208BF704765
:100DE80011F0004302D5404261EB41015FEA010C7A
:100DF80002BF84460146002043F0B64308BFA3F172
:100E08008053A3F50003BCFA8CF2083AA3EBC25353
:100E180010DB01FA02FC634400FA02FCC2F1200272
:100E2800BCF1004F20FA02F243EB020008BF20F0A9
:100E38000100704702F1200201FA02FCC2F120020F
:100E480050EA4C0021FA02F243EB020008BF20EA04
:100E5800DC7070474FF0FF0C1CEAD0521EBF1CEA32
:100E6800D15392EA0C0F93EA0C0F6FD01A4480EA20
:100E7800010C400218BF5FEA41211ED04FF0006309
:100E880043EA501043EA5111A0FB01310CF0004035
:100E9800B1F5000F3EBF490041EAD3715B0040EA5B
:100EA800010062F17F02FD2A1DD8B3F1004F40EB2B
:100EB800C25008BF20F00100704790F0000F0CF0FE
:100EC800004C08BF49024CEA502040EA51207F3AC2
:100ED800C2BFD2F1FF0340EAC250704740F400009D
:100EE8004FF00003013A5DDC12F1190FDCBF00F08E
:100EF80000407047C2F10002410021FA02F1C2F13C
:100F0800200200FA02FC5FEA310040F1000053EAD7
:100F18004C0308BF20EADC70704792F0000F00F025
:100F2800004C02BF400010F4000F013AF9D040EA2B
:100F38000C0093F0000F01F0004C02BF490011F4BF
:100F4800000F013BF9D041EA0C018FE70CEAD153BD
:100F580092EA0C0F18BF93EA0C0F0AD030F0004C3D
:100F680018BF31F0004CD8D180EA010000F00040F1
:100F7800704790F0000F17BF90F0004F084691F0AF
:100F8800000F91F0004F14D092EA0C0F01D14202E9
:100F98000FD193EA0C0F03D14B0218BF084608D1B2
:100FA80080EA010000F0004040F0FE4040F40000FC
:100FB800704740F0FE4040F4400070474FF0FF0C8F
:100FC8001CEAD0521EBF1CEAD15392EA0C0F93EAD6
:100FD8000C0F69D0A2EB030280EA010C49024FEA28
:100FE800402037D04FF0805343EA111143EA1013E1
:100FF8000CF000408B4238BF5B0042F17D024FF499
:10100800000C8B4224BF5B1A40EA0C00B3EB510F73
:1010180024BFA3EB510340EA5C00B3EB910F24BF5C
:10102800A3EB910340EA9C00B3EBD10F24BFA3EBE1
:10103800D10340EADC001B0118BF5FEA1C1CE0D1A9
:10104800FD2A3FF650AF8B4240EBC25008BF20F05C
:10105800010070470CF0004C4CEA50207F32C2BFB0
:10106800D2F1FF0340EAC250704740F400004FF04D
:101078000003013A37E792F0000F00F0004C02BF7E
:10108800400010F4000F013AF9D040EA0C0093F048
:10109800000F01F0004C02BF490011F4000F013BA2
:1010A800F9D041EA0C0195E70CEAD15392EA0C0F0A
:1010B80008D142027FF47DAF93EA0C0F7FF470AF42
:1010C800084676E793EA0C0F04D14B023FF44CAF85
:1010D80008466EE730F0004C18BF31F0004CCAD11A
:1010E80030F000427FF45CAF31F000437FF43CAF56
:1010F8005FE700BF4FF0FF3C06E000BF4FF0010C78
:1011080002E000BF4FF0010C4DF804CD4FEA400259
:101118004FEA41037FEA226C18BF7FEA236C11D0A3
:1011280001B052EA530C18BF90EA010F58BFB2EB56
:10113800030088BFC81738BF6FEAE17018BF40F0D6
:10114800010070477FEA226C02D15FEA402C05D18A
:101158007FEA236CE4D15FEA412CE1D05DF8040B0F
:10116800704700BF844608466146FFE70FB5FFF7A2
:10117800C9FF002848BF10F1000F0FBD4DF808ED5A
:10118800FFF7F4FF0CBF012000205DF808FB00BF4B
:101198004DF808EDFFF7EAFF34BF012000205DF8A5
:1011A80008FB00BF4DF808EDFFF7E0FF94BF0120F2
:1011B80000205DF808FB00BF4DF808EDFFF7D2FFEF
:1011C80094BF012000205DF808FB00BF4DF808ED32
:1011D800FFF7C8FF34BF012000205DF808FB00BFFF
:1011E8004FEA4002B2F1FE4F0FD34FF09E03B3EB2C
:1011F80012620DD94FEA002343F0004310F0004F6C
:1012080023FA02F018BF404270474FF000007047C1
:1012180012F1610F01D1420205D110F0004008BF60
:101228006FF0004070474FF00000704742000ED248
:10123800B2F1FE4F0BD34FF09E03B3EB126209D409
:101248004FEA002343F0004323FA02F070474FF0BF
:101258000000704712F1610F01D1420202D14FF034
:10126800FF3070474FF00000704700BF7BB972B97C
:101278000029BEBF00204FF0004106E008BF00284B
:101288001CBF6FF000414FF0FF3000F0F5B9ADF131
:10129800080C6DE904CE002909DB002B1ADB00F0ED
:1012A8006BF8DDF804E0DDE9022304B07047404242
:1012B80061EB4101002B1BDB00F05EF8DDF804E078
:1012C800DDE9022304B0404261EB4101524263EB85
:1012D80043037047524263EB430300F04DF8DDF8D7
:1012E80004E0DDE9022304B0404261EB41017047AC
:1012F800524263EB430300F03FF8DDF804E0DDE918
:10130800022304B0524263EB4303704738B500220E
:10131800002304460D46FFF7B9FB28B920462946A5
:10132800BDE8384000F00AB8204605F1004100F059
:1013380005F8404261EB410138BD00BFD0B500223D
:101348000B4B06460F46FFF72FF9FFF705FC04463F
:10135800FFF7B0F80022074BFFF726F902460B46C5
:1013680030463946FEF768FFFFF7F6FB2146D0BD49
:101378000000F03D0000F0412DE9F047089D8E4641
:1013880004468846002B4AD18A42174662D9B2FAE7
:1013980082F64EB1C6F1200301FA06F820FA03F3EB
:1013A800B74043EA0808B4404FEA174EB8FBFEF1CD
:1013B8001FFA87FC0EFB118801FB0CF2230C43EA91
:1013C80008439A4209D9FB1801F1FF3080F0EB80FD
:1013D8009A4240F2E88002393B449A1AB2FBFEF086
:1013E8000EFB102200FB0CFCA3B243EA02439C450F
:1013F80009D9FB1800F1FF3280F0D7809C4540F2F4
:10140800D4803B44023840EA01400021A3EB0C039E
:101418001DB10022F340C5E90032BDE8F0878B42D8
:1014280005D90DB1C5E9000100210846F5E7B3FA71
:1014380083F1002946D1734502D3824200F2088124
:10144800841A6EEB030201209046002DE5D0C5E911
:101458000048E2E7002A00F09180B2FA82F6002EF6
:1014680040F0A5808A1A0121030C4FEA174E80B27A
:10147800BCB2B2FBFEFC0EFB1C2243EA024304FB97
:101488000CF29A4207D9FB180CF1FF3802D29A42A3
:1014980000F2E380C4469B1AB3FBFEF20EFB123344
:1014A80002FB04F440EA03439C4207D9FB1802F10B
:1014B800FF3002D29C4200F2CD8002461B1B42EA5A
:1014C8000C40A5E7C1F120068B4022FA06F71F431E
:1014D8002EFA06FA4FEA1749BAFBF9F80EFA01FE96
:1014E80020FA06F309FB18AA1FFA87FC43EA0E0341
:1014F80000FA01FE08FB0CF01C0C44EA0A44A04266
:1015080002FA01F20AD93C1908F1FF3A80F09E80EC
:10151800A04240F29B80A8F102083C44241A98B2E9
:10152800B4FBF9F309FB134403FB0CFC40EA044445
:10153800A44509D93C1903F1FF3080F08580A44502
:1015480040F28280023B3C4443EA0840A4EB0C048E
:10155800A0FB028C64454346E14664D361D05DB18B
:10156800BEEB030264EB090404FA06F622FA01F35F
:101578001E43CC40C5E9006400214EE7B1FBF2FCF4
:10158800010C41EA0E4180B240EA01423B46B1FB00
:10159800F7F138463C46B846BE462026A2EB08027C
:1015A80041EA0C4165E7014617E710462BE7C6F10B
:1015B80020012EFA01FCB7400EFA06FE20FA01F1CE
:1015C80041EA0E014FEA174EBCFBFEF8BCB20EFB17
:1015D80018CC08FB04F90A0C42EA0C42B0409145C9
:1015E8004FEA104380B23ED9BA1808F1FF3C01D245
:1015F80091451FD8A2EB0902B2FBFEF909FB04F8DA
:101608000EFB192A8AB242EA0A42424529D2BA187E
:1016180009F1FF31C2D24245C0D2A9F102013A44D0
:10162800BCE7C6459BD2B8EB02036CEB070C01384C
:10163800E14694E7A7EB09094A44B2FBFEF9A8F191
:10164800020C09FB04F8DBE703467DE7D04665E7B3
:101658000846FAE63B44023A30E7ACF1020C3B4458
:1016680019E749469AE7A2EB0902B2FBFEF9C4461C
:1016780009FB04F8C4E700BF704700BF80B500AF9E
:101688004FF48062C823044940F6F63004F022FC87
:101698000346184680BD00BF1025010880B588B0F4
:1016A80000AF0346FB806E4A07F114031268114627
:1016B80019800233120C1A706A4A07F11003126873
:1016C800114619800233120C1A70674A07F10C038D
:1016D8001268114619800233120C1A70634A07F116
:1016E80008031268114619800233120C1A70FB881D
:1016F80003F0030320333B4413F80C3C3B77FB888F
:10170800DB089BB203F0030320333B4413F80C3C83
:101718007B77FB889B099BB203F0030320333B4490
:1017280013F80C3CBB77FB8803F0030320333B44DE
:1017380013F8103C3B76FB88DB089BB203F00303ED
:1017480020333B4413F8103C7B76FB889B099BB203
:1017580003F0030320333B4413F8103CBB7607F136
:101768001C031A46032140F2264004F00FFB0346EF
:10177800002B02D04FF0FF336EE007F118031A4632
:10178800032140F22A4004F001FB0346002B02D05B
:101798004FF0FF3360E007F11C0307F10C021268F9
:1017A800114619800233120C1A7007F1180307F159
:1017B80008021268114619800233120C1A70FB884D
:1017C80003F00403002B09D03B7F43F00103DBB295
:1017D8003B773B7E43F00103DBB23B76FB8803F0AB
:1017E8002003002B09D07B7F43F00103DBB27B771A
:1017F8007B7E43F00103DBB27B76FB8803F48073C6
:10180800002B09D0BB7F43F00103DBB2BB77BB7E63
:1018180043F00103DBB2BB7607F11C031A46032130
:101828004FF4886004F0B2FA0346002B02D04FF060
:10183800FF3311E007F118031A46032140F2314043
:1018480004F0A4FA0346002B02D04FF0FF3303E064
:10185800074AFB881381002318462037BD4680BD00
:10186800E01E0108E41E0108E81E0108EC1E01083C
:10187800800200202DE9B04F8CB000AFF861804B9A
:101888001B8903F003039B00FA6913441B687B62FE
:101898007B4B1B8903F00403002B02D07B6A5B425D
:1018A8007B62774B1B89DB089BB203F003039B0029
:1018B800FA6913441B68BB62714B1B8903F0200350
:1018C800002B02D0BB6A5B42BB626D4B1B899B0934
:1018D8009BB203F003039B00FA6913441B68FB6285
:1018E800674B1B8903F48073002B02D0FB6A5B42B1
:1018F800FB627B6ADA173B617A61624BD7E90401C4
:101908000A4603FB02F20023C7E90401014601FB72
:1019180003F313445B4A3969A1FB02AB5B449B4662
:101928004FF000024FF000034FEA9A7242EA8B022E
:101938004FEAAB7313467B62BB6ADA17BB60FA6087
:10194800504BD7E902AB5A4603FB02F2002351463B
:1019580001FB03F313444B4A5146A1FB02894B4454
:1019680099464FF000024FF000034FEA987242EA9E
:1019780089024FEAA9731346BB62FB6ADA173B6018
:101988007A60404BD7E900894A4603FB02F20023FC
:10199800414601FB03F313443A4A4146A1FB024581
:1019A8002B441D464FF000024FF00003A20F42EAFD
:1019B8008502AB171346FB627B6A1B16DBB287F8FE
:1019C80020307B6A1B14DBB287F821307B6A1B123C
:1019D800DBB287F822307B6ADBB287F8233007F165
:1019E80020031A4604214FF4747004F0CFF903461B
:1019F800002B02D04FF0FF333CE0BB6A1B16DBB272
:101A080087F82030BB6A1B14DBB287F82130BB6A29
:101A18001B12DBB287F82230BB6ADBB287F82330AF
:101A280007F120031A4604214FF4757004F0AEF94B
:101A38000346002B02D04FF0FF331BE0FB6A1B1656
:101A4800DBB287F82030FB6A1B14DBB287F8213041
:101A5800FB6A1B12DBB287F82230FB6ADBB287F81D
:101A6800233007F120031A4604214FF4767004F05E
:101A78008DF9034618463037BD46BDE8B08F00BF24
:101A88008002002009E3CA022DE9B04F94B000AFEC
:101A9800786207F12E03184603F0AEF8FB8D9BB26F
:101AA80000223B617A614FF000024FF00003796930
:101AB800CB03D7E90401844643EA5C430146CA03E1
:101AC800C7E91223714B1B8903F003039B007A6A51
:101AD80013441B68FB636D4B1B8903F00403002B45
:101AE80002D0FB6B5B42FB63684B1B89DB089BB234
:101AF80003F003039B007A6A13441B683B64634B3F
:101B08001B8903F02003002B02D03B6C5B423B6433
:101B18005E4B1B899B099BB203F003039B007A6A07
:101B280013441B687B64594B1B8903F48073002B97
:101B380002D07B6C5B427B64FB6BDA17BB61FA619A
:101B4800BB6CD7E906010A4602FB03F2FB6CC7E946
:101B58000601014601FB03F31344BA6CB969A2FB01
:101B680001AB5B449B464FF000024FF000034FEA85
:101B78009A7242EA8B024FEAAB731346FB633B6CE3
:101B8800DA17BB60FA60BB6CD7E902AB5A4602FBB6
:101B980003F2FB6C514601FB03F31344BA6C514644
:101BA800A2FB01894B4499464FF000024FF0000315
:101BB8004FEA987242EA89024FEAA97313463B64D6
:101BC8007B6CDA173B607A60BB6CD7E900894A46C0
:101BD80002FB03F2FB6C414601FB03F31344BA6CAE
:101BE8004146A2FB01452B441D464FF000024FF031
:101BF8000003A20F42EA8502AB1713467B64FB6B16
:101C08001B16DBB287F83030FB6B1B14DBB287F88E
:101C18003130FB6B1B12DBB287F83230FB6BDBB267
:101C280087F833303B6C1B16DBB287F834303B6CDB
:101C38001B14DBB287F835303B6C1B12DBB287F81C
:101C480036303B6CDBB287F837307B6C1B16DBB267
:101C580087F838307B6C1B14DBB287F839307B6C23
:101C68001B12DBB287F83A307B6CDBB287F83B306B
:101C780007F130031A460C214FF4257004F086F85A
:101C8800034618465037BD46BDE8B08F8002002095
:101C980080B588B000AF0346FB801F4A07F11003E8
:101CA80007CA83E80700FB88C82B02D94FF0FF3327
:101CB8002EE0FB88C82292FBF3F39BB2013BFB8327
:101CC800FB8B1B0A9BB2DBB23B72FB8BDBB27B72DA
:101CD80007F108031A46022140F2162004F056F8CC
:101CE8000346002B02D04FF0FF3311E007F1100339
:101CF8001A460C2140F6C12004F048F80346002B90
:101D080002D04FF0FF3303E0044AFB88938100239D
:101D180018462037BD4680BDF01E0108800200200D
:101D280080B586B000AF03460A46FB711346BB80F8
:101D3800FB7903F00703002B03D0BB88B3F5C86F0A
:101D480002D94FF0FF3307E1BB881846FFF72AF89E
:101D5800034683491846FFF731F903463B6107F10B
:101D68000B03184602F066FDFB7A023B0E2B79D86E
:101D780001A252F823F000BFBD1D00086D1E000827
:101D8800E91D00086D1E00086D1E00086D1E000884
:101D9800151E00086D1E00086D1E00086D1E000847
:101DA8006D1E00086D1E00086D1E00086D1E0008DF
:101DB800411E00084FF08D413869FFF74BF8034684
:101DC8001846FFF733FA0346FB8266493869FFF77E
:101DD80041F803461846FFF729FA0346BB8244E058
:101DE8004FF08C413869FFF735F803461846FFF77E
:101DF8001DFA0346FB825C493869FFF72BF8034656
:101E08001846FFF713FA0346BB822EE04FF08B41CA
:101E18003869FFF71FF803461846FFF707FA034625
:101E2800FB8252493869FFF715F803461846FFF751
:101E3800FDF90346BB8218E04FF08A413869FFF785
:101E480009F803461846FFF7F1F90346FB824849AB
:101E58003869FEF7FFFF03461846FFF7E7F9034620
:101E6800BB8202E04FF0FF3376E0FB8A1B0A9BB28D
:101E7800DBB23B73FB8ADBB27B73BB8A1B0A9BB268
:101E8800DBB2BB73BB8ADBB2FB73FB7903F00103E4
:101E9800002B1CD007F10C031A4602214FF4EA70FC
:101EA80003F074FF0346002B02D04FF0FF3353E0DA
:101EB80007F10C0302331A4602214FF4927003F023
:101EC80065FF0346002B02D04FF0FF3344E0FB7957
:101ED80003F00203002B1CD007F10C031A46022161
:101EE8004FF4EC7003F052FF0346002B02D04FF082
:101EF800FF3331E007F10C0302331A4602214FF495
:101F0800947003F043FF0346002B02D04FF0FF33D9
:101F180022E0FB7903F00403002B1CD007F10C032B
:101F28001A4602214FF4EE7003F030FF0346002BEF
:101F380002D04FF0FF330FE007F10C0302331A46CB
:101F480002214FF4967003F021FF0346002B02D0C4
:101F58004FF0FF3300E0002318461837BD4680BD18
:101F680000004843000040460000C04500004045CE
:101F78000000C04480B584B000AF0346FB71002365
:101F8800FB73FB7903F00103002B04D0FB7B43F0C8
:101F98003003DBB2FB73FB7903F00203002B04D0A0
:101FA800FB7B43F00C03DBB2FB73FB7903F0040308
:101FB800002B04D0FB7B43F00303DBB2FB7307F178
:101FC8000F031A4601214FF4A47003F0DFFE034605
:101FD80018461037BD4680BD80B584B000AF0346B3
:101FE800FB71FB79002B02D10123FB7104E0FB7923
:101FF800042B01D90423FB71FB79013BDBB2FB7392
:1020080007F10F031A46012140F24F1003F0BEFEFC
:10201800034618461037BD4680BD000080B584B021
:1020280000AF0346FB80FB880C4AA2FB03239B08F6
:10203800FB81FB891B0A9BB2DBB23B73FB89DBB2DA
:102048007B7307F10C031A4602214FF4EF7003F07B
:102058009DFE034618461037BD4680BDCDCCCCCC7E
:1020680080B584B000AF0346FB80FB880C4AA2FB16
:1020780003239B08FB81FB891B0A9BB2DBB23B73E2
:10208800FB89DBB27B7307F10C031A4602214FF47C
:10209800ED7003F07BFE034618461037BD4680BD41
:1020A800CDCCCCCC80B584B000AF78600B467B80BB
:1020B8007B68134A82FB03129211DB17D31A7A88C2
:1020C80002FB03F3FB60FB681B16DBB23B72FB6889
:1020D8001B14DBB27B72FB681B12DBB2BB72FB68A2
:1020E800DBB2FB7207F108031A4604214FF4AE7005
:1020F80003F04CFE034618461037BD4680BD00BFAE
:10210800D34D621080B584B000AF0346FB80FB88D6
:102118000C4AA2FB03239B08FB80FB881B0A9BB28B
:10212800DBB23B73FB88DBB27B7307F10C031A4607
:1021380002214FF4AD7003F029FE0346184610370C
:10214800BD4680BDCDCCCCCC80B584B000AF0346B5
:10215800FB80FB880C4AA2FB03239B08FB80FB88BF
:102168001B0A9BB2DBB23B73FB88DBB27B7307F1C4
:102178000C031A4602214FF4AC7003F007FE034625
:1021880018461037BD4680BDCDCCCCCC80B586B0C6
:1021980000AF0346FB8002233B73CA237B73E32310
:1021A800BB730923FB7307F10C031A46042168204B
:1021B80003F0ECFDA3233B73FB8803F04003002BE3
:1021C80006D0C0237B73C823BB73C223FB7305E00F
:1021D800A3237B73A323BB73A323FB73FB8803F4A1
:1021E800C073002B06D0C4233B74CC237B74C62356
:1021F800BB7405E0A3233B74A3237B74A323BB74A4
:10220800A323FB74A3233B75A3237B7507F10C035E
:102218001A460A2140F6A72003F0B8FDFB8803F010
:102228000303002B02D020233B7301E0D8233B7328
:1022380007F10C031A46012140F6B62003F0A6FD6B
:10224800FB8803F02003002B03D0012000F0C6F820
:1022580002E0002000F0C2F8FB8803F4C073002BF2
:102268001DD0FB8803F48073002B08D0B2233B7386
:102278008B237B73B623BB739B23FB7307E0B023CD
:102288003B7380237B73B423BB739023FB7307F1E9
:102298000C031A46042140F6A22003F077FDFB88C0
:1022A80003F00103002B25D0F8233B7307F10C033F
:1022B8001A4601214FF40B6003F068FDFA2107204C
:1022C800FFF72EFD0720FFF755FE0120FFF784FEDC
:1022D8006420FFF7A3FE4FF4FA70FFF7C1FEC82190
:1022E8003C48FFF7DFFE2820FFF70CFF0A20FFF726
:1022F8002BFF09E0D8233B7307F10C031A46012191
:102308004FF40B6003F042FDFB8803F00203002B3F
:1023180002D0D9233B7301E0D8233B7307F10C03A8
:102328001A46012140F23D7003F030FDFB8803F0AE
:102338000403002B03D0012000F080F802E0002005
:1023480000F07CF8FB8803F01003002B03D0012079
:1023580000F09BF802E0002000F097F8FB8843F0BB
:1023680008039AB21C4B5A8102F0DEF81A4B00227D
:102378009A73FB8803F04003002B05D0164B9B7B18
:102388000633DAB2144B9A73FB8803F4C073002B3C
:1023980005D0114B9B7B0633DAB20F4B9A73FB883F
:1023A80003F01403002B05D00B4B9B7B1033DAB2E0
:1023B800094B9A73FB8803F00303002B05D0064BE7
:1023C8009B7B0433DAB2044B9A7300231846183700
:1023D800BD4680BD09E3CA028002002080B588B0EE
:1023E80000AF0346FB71FB79002B0FD0114A07F1B0
:1023F800140307CA03C31A7007F114031A46092104
:102408004FF4976003F0C2FC03460EE00A4A07F156
:10241800080307CA03C31A7007F108031A460921FB
:102428004FF4976003F0B2FC034618462037BD46C8
:1024380080BD00BFFC1E0108081F010880B584B0DC
:1024480000AF0346FB71FB79002B08D0C0233B7318
:10245800C2237B73C423BB73C623FB7306E007F157
:102468000C0304228B2118460BF08CFC07F10C039B
:102478001A46042140F6982003F088FC02F054F82C
:10248800034618461037BD4680BD80B584B000AFFE
:102498000346FB71FB79002B08D020233B732823CC
:1024A8007B733023BB733823FB7306E007F10C03FF
:1024B8000422A32118460BF065FC07F10C031A4609
:1024C800042140F69E2003F061FC02F02DF803463B
:1024D80018461037BD4680BD80B584B000AF78601F
:1024E8007B6803331B7823F03F03FB737B6803335C
:1024F8001B7803F03F03BB737B6801331B7803F041
:102508000103002B12D0BB7BDB087B73BB7B03F082
:102518000703DBB201333B73104B1B68002B05D05C
:102528000E4B1B68397B7A7B104698477B680133D2
:102538001B7803F00803002B0AD0084B5B68002BBC
:1025480006D0064B5B68FA7B9209D2B210469847D0
:10255800002318461037BD4680BD00BF800200200A
:1025680080B592B000AFF860B9607A603B60002334
:1025780087F847303B6D00221A80B14B9B7B184689
:1025880007F120037A6D194602F05CFC0346002B24
:1025980002D04FF0FF334EE1A94B5B8903F01403DF
:1025A800002B00F08A8097F820301A0697F821301F
:1025B8001B041A4397F822301B02134397F8232071
:1025C8001A437B681A6097F824301A0697F8253062
:1025D8001B041A4397F826301B021A4397F8273032
:1025E80019467B6804330A431A6097F828301A069C
:1025F80097F829301B041A4397F82A301B021A430C
:1026080097F82B3019467B6808330A431A6097F805
:102618002C301A0697F82D301B041A4397F82E30E1
:102628001B021A4397F82F3019467B680C330A436C
:102638001A6097F84730103387F847307B681B6873
:102648001B143B617B6804331B681B147B617B682C
:1026580008331B681B14BB617B680C331B681B1495
:10266800FB613B693A6903FB02F27B69796901FB0B
:1026780003F31A44BB69B96901FB03F31A44FB6904
:10268800F96901FB03F313443B643B6CB3F1706FCE
:1026980003DB3B6CB3F1885F07DD01F045FF3B6D61
:1026A80000221A804FF0FF33C5E03B6DB3F90030CC
:1026B80043F480731AB23B6D1A80614B5B8903F057
:1026C8004003002B4FD097F8473048333B4413F86A
:1026D800283C1BB21B021AB297F847300133483323
:1026E8003B4413F8283C1BB213431AB2BB681A8048
:1026F80097F84730023348333B4413F8283C1BB261
:102708001B0219B297F84730033348333B4413F898
:10271800283C1AB2BB6802330A4312B21A8097F8EF
:102728004730043348333B4413F8283C1BB21B02A0
:1027380019B297F84730053348333B4413F8283C1F
:102748001AB2BB6804330A4312B21A8097F84730AA
:10275800063387F847303B6DB3F9003043F0080380
:102768001AB23B6D1A80364B5B8903F4C073002B99
:102778004FD097F8473048333B4413F8283C1BB2F6
:102788001B021AB297F84730013348333B4413F819
:10279800283C1BB213431AB2FB681A8097F84730DB
:1027A800023348333B4413F8283C1BB21B0219B2CE
:1027B80097F84730033348333B4413F8283C1AB2A0
:1027C800FB6802330A4312B21A8097F84730043381
:1027D80048333B4413F8283C1BB21B0219B297F844
:1027E8004730053348333B4413F8283C1AB2FB689A
:1027F80004330A4312B21A8097F84730063387F831
:1028080047303B6DB3F9003043F070031AB23B6DAB
:102818001A800B4B5B8903F00303002B07D097F852
:10282800473007F1200213441846FFF755FE386871
:1028380003F022FC002318464837BD4680BD00BF80
:1028480080020020B0B5AEB004AFF860B9607A601D
:10285800B64BC7F8A4307B68C7F89C304FF07E535E
:10286800C7F88C30D7F8A43083F00043C7F890300D
:102878004FF00003C7F894304FF07E53C7F89830F4
:10288800D7F8A430C7F884304FF00003C7F8883071
:102898004FF07E53FB674FF00003C7F88030A44B1E
:1028A80007F16C040FCB84E80F00A24BBB664FF016
:1028B8007E53BB654FF00003FB65D7F8A43083F067
:1028C80000433B664FF07E537B664FF07E533B657B
:1028D8004FF000037B6507F1480300221A605A6035
:1028E80007F1400300221A605A6007F13003002202
:1028F8001A605A609A60DA6007F1200300221A60B1
:102908005A609A60DA6007F1180300221A605A6068
:102918004FF000037B61FB6883F000431846FDF726
:10292800EBFD04460D46B868FDF7E6FD02460B468A
:10293800204629460EF088FD02460B4610461946E9
:10294800FEF72AF90346C7F8A03007F148030293B7
:10295800794B019307F18C03009301230222022192
:10296800022000F023FB07F14003029307F19C03C8
:10297800019307F18403009301230122012102201E
:1029880000F014FBBB6C3A6C11461846FEF75AF976
:1029980003461A46694B1A60FB6C7A6C1146184656
:1029A800FEF750F903461A46644B5A6007F13003A4
:1029B8000293634B019307F18C03009302230222D5
:1029C8000221022000F0F2FA07F12003029307F136
:1029D8005803019307F130030093022302220221D6
:1029E800022000F0E3FA3B6AFA6E11461846FEF739
:1029F80029F903461A46534B1A607B6A3A6F114607
:102A08001846FEF71FF903461A464E4B5A60BB6A32
:102A18007A6F11461846FEF715F903461A46494BD0
:102A28009A60FB6ABA6F11461846FEF70BF903461F
:102A38001A46444BDA6007F118030293414B01939D
:102A480007F17C030093022302220221012000F0F7
:102A5800ADFA07F11403029307F15003019307F14C
:102A680018030093012302220221012000F09EFA9C
:102A78007B69BA6E11461846FEF7E4F80346194614
:102A88004FF07E50FEF79AFA03467B6107F1480340
:102A9800029307F1500301932A4B0093012302226A
:102AA8000221022000F082FA274B029307F1140357
:102AB800019307F148030093012301220121022019
:102AC80000F074FA07F1140302931C4B019307F109
:102AD8007C030093012302220221012000F066FA00
:102AE8007B691946D7F8A000FEF7AAF803467B6170
:102AF80007F14803029307F114030193124B009363
:102B0800012301220121022000F050FA0B4B1B681F
:102B1800BA6C11461846FEF795F803461A46064B56
:102B28001A60064B5B68FA6C11460FE00AD7A33BA4
:102B38002C1F010817B7D1389002002098020020F6
:102B480000000020A0020020B00200201846FEF776
:102B580079F803461A46234B5A6007F1300302936B
:102B680007F17C030193204B0093022301220121EA
:102B7800022000F01BFA1D4B1B683A6B11461846E1
:102B8800FEF75EF803463B63184B5B687A6B1146A9
:102B98001846FEF755F803467B63144B9B68BA6BDF
:102BA80011461846FEF74CF80346BB630F4BDB682B
:102BB800FA6B11461846FEF743F80346FB630C4BC5
:102BC80002930C4B019307F1300300930223022276
:102BD8000221022000F0EAF9024B1B681846A837C8
:102BE800BD46B0BD90020020B002002008310108A7
:102BF80000000020A0020020B0B5AEB004AFF8601D
:102C0800B9607A60B64BC7F8A4307B68C7F89C30C7
:102C18004FF07E53C7F88C30D7F8A43083F00043C8
:102C2800C7F890304FF00003C7F894304FF07E5348
:102C3800C7F89830D7F8A430C7F884304FF00003AD
:102C4800C7F888304FF07E53FB674FF00003C7F892
:102C58008030A44B07F16C040FCB84E80F00A24B23
:102C6800BB664FF07E53BB654FF00003FB65D7F89A
:102C7800A43083F000433B664FF07E537B664FF0F1
:102C88007E533B654FF000037B6507F14803002244
:102C98001A605A6007F1400300221A605A6007F16F
:102CA800300300221A605A609A60DA6007F1200344
:102CB80000221A605A609A60DA6007F1180300224D
:102CC8001A605A604FF000037B61FB6883F0004391
:102CD8001846FDF711FC04460D46B868FDF70CFCD4
:102CE80002460B46204629460EF0AEFB02460B462E
:102CF80010461946FDF750FF0346C7F8A03007F104
:102D080048030293794B019307F18C030093012345
:102D180002220221022000F049F907F14003029340
:102D280007F19C03019307F1840300930123012217
:102D38000121022000F03AF9BB6C3A6C11461846A2
:102D4800FDF780FF03461A46694B1A60FB6C7A6CE4
:102D580011461846FDF776FF03461A46644B5A603B
:102D680007F130030293634B019307F18C0300933F
:102D7800022302220221022000F018F907F12003A1
:102D8800029307F15803019307F1300300930223DC
:102D980002220221022000F009F93B6AFA6E11466C
:102DA8001846FDF74FFF03461A46534B1A607B6AD5
:102DB8003A6F11461846FDF745FF03461A464E4B33
:102DC8005A60BB6A7A6F11461846FDF73BFF034607
:102DD8001A46494B9A60FB6ABA6F11461846FDF7C6
:102DE80031FF03461A46444BDA6007F11803029391
:102DF800414B019307F17C03009302230222022135
:102E0800012000F0D3F807F11403029307F15003EF
:102E1800019307F1180300930123022202210120E4
:102E280000F0C4F87B69BA6E11461846FDF70AFF30
:102E3800034619464FF07E50FEF7C0F803467B6103
:102E480007F14803029307F1500301932A4B0093BB
:102E5800012302220221022000F0A8F8274B029346
:102E680007F11403019307F148030093012301229A
:102E78000121022000F09AF807F1140302931C4B79
:102E8800019307F17C030093012302220221012010
:102E980000F08CF87B691946D7F8A000FDF7D0FE42
:102EA80003467B6107F14803029307F1140301937A
:102EB800124B0093012301220121022000F076F831
:102EC8000B4B1B68BA6C11461846FDF7BBFE034650
:102ED8001A46064B1A60064B5B68FA6C11460FE0FF
:102EE8000AD7A33B2C1F010817B7D138B802002016
:102EF800C002002010000020C8020020D8020020D4
:102F08001846FDF79FFE03461A46234B5A6007F101
:102F18003003029307F17C030193204B00930223B3
:102F280001220121022000F041F81D4B1B683A6B79
:102F380011461846FDF784FE03463B63184B5B6851
:102F48007A6B11461846FDF77BFE03467B63144BEC
:102F58009B68BA6B11461846FDF772FE0346BB63C1
:102F68000F4BDB68FA6B11461846FDF769FE0346FE
:102F7800FB630C4B02930C4B019307F13003009356
:102F8800022302220221022000F010F8024B1B68E3
:102F98001846A837BD46B0BDB8020020D8020020A8
:102FA8001831010810000020C80200202DE9F04F58
:102FB8008DB000AF78613961FA60BB603A697A60B8
:102FC800531E3B62002392469B464FF000024FF08F
:102FD80000034FEA4B1343EADA634FEA4A12BA682E
:102FE8003A60531EFB610023904699464FF0000259
:102FF8004FF000034FEA491343EAD8634FEA4812F7
:10300800BE68731EBB613246002314461D464FF04E
:1030180000024FF000036B0143EAD46362013A698E
:10302800FB689A425BD10023FB6253E00023BB623A
:1030380049E03246FB6A02FB03F39B003A6E1344F5
:10304800BA6A4FF0000143F8221000237B6233E094
:103058007A68FB6A02FB03F39B00BA6D13447A6A31
:1030680053F822003A687B6A02FB03F39B00FA6D6F
:103078001344BA6A53F822301946FDF7EBFE0346AB
:1030880018463246FB6A02FB03F39B003A6E134470
:10309800BA6A53F822103246FB6A02FB03F39B001C
:1030A8003A6ED418FDF7CEFD03461A46BB6A44F8BB
:1030B80023207B6A01337B627A6A3B699A42C7DBC9
:1030C800BB6A0133BB62BA6ABB689A42B1DBFB6A6E
:1030D8000133FB62FA6A7B699A42A7DB02E0044883
:1030E8000AF0D6FC00BF3437BD46BDE8F08F00BFFC
:1030F8003C1F010880B58AB000AF0346FB80FB88FF
:10310800B3F5805F40F0C480634B1B78002B40F020
:10311800BF80624B1B8801339AB2604B1A805F4BA9
:103128001B88092B2DD95D4B00221A805C4B01228C
:103138001A600F2000F09EFB594B00221A60594B71
:103148001B889BB203F08003002B1AD0554B1B88B9
:103158009BB203F03F031B04534A128892B21344F4
:103168001A46524B1A60514B1B68AA2202FB03F302
:103178004F4AA2FB03239B094C4A1360494B002288
:103188001A804A4B1B681846FDF70CFE034649494E
:103198001846FDF713FF03461A46474B1A60464B7D
:1031A8001B684FF080411846FDF7F2FF0346002BDD
:1031B80006D0424B424A1A60424B434A1A6006E024
:1031C8003E4B424A1A603F4B4FF000021A60404B98
:1031D8001B78184600F088F8002000F0ABFB7862F6
:1031E800012000F0A7FB03465B423B62396A786A1C
:1031F80003F0FEFC374B1B68374A12681146184625
:1032080004F0C4FDF861396A786A04F009FEB8610F
:10321800324B1B68184604F0DDFE7861FA69BB6919
:1032280013447A6913443B61FA69BB691A447B69A0
:10323800D31AFB60386903F05FFC3861F86803F063
:103248005BFCF860264A40F62821386903F0B6FC92
:103258003861234A40F62821F86803F0AFFCF8608B
:103268000D4B1B78002B0FD11A4B1B681D4A126897
:103278001146184603F088FD0346002B04D1F9686F
:10328800386903F051FC03E00021002003F04CFCF6
:1032980000BF2837BD4680BD65000020E40200203D
:1032A800800121420C0800200E0800201008002090
:1032B800D34D621000002041E0020020D407002016
:1032C8000000C0C0D8070020000070410000C040C6
:1032D80064000020FC0200200003002004030020FA
:1032E800D8F5FFFF28000020B0B58CB002AF034628
:1032F800FB71FB79012B21D103F06EFF7A4B1B6820
:103308007A4A13607A4BB3F900301846FDF74EFD40
:103318000346784A1360764BB3F904301846FDF734
:1033280045FD0346744A1360744BB3F904301846DC
:10333800FDF73CFD0346724A1360CBE007F1140425
:1033480007F1080207F1180107F11C0007F10C0347
:10335800019307F110030093234600F0DBF8694B53
:103368001B78022B44D13869F968FB6983F0004364
:103378001A46FFF767FA03461846FDF7BDF858A343
:10338800D3E90023FDF73AFA02460B4610461946E0
:103398004FF000025C4BFDF707F902460B4610465A
:1033A8001946FDF7F9FB03464F4A13607B69F96834
:1033B800BA691846FFF720FC03461846FDF79CF843
:1033C80047A3D3E90023FDF719FA02460B46104636
:1033D80019464FF000024C4BFDF7E6F802460B4643
:1033E80010461946FDF7D8FB0346484A13606DE0BE
:1033F800444B1B78032B69D13B691846FDF77CF8D1
:1034080004460D46FB681846FDF776F802460B465B
:10341800204629460EF018F84FF000023A4BFDF707
:10342800C3F802460B46104619462DA3D3E90023DC
:10343800FDF7E4F902460B4610461946FDF7ACFBCA
:1034480003467B627B691846FDF756F804460D462D
:10345800FB681846FDF750F802460B4620462946F9
:103468000DF0F2FF4FF00002274BFDF79DF80246E2
:103478000B46104619461AA3D3E90023FDF7BEF9F7
:1034880002460B4610461946FDF786FB03463B628B
:10349800FB691F491846FDF791FD03461946786AEE
:1034A80000F070FA034683F000430F4A1360BB69CB
:1034B80017491846FDF782FD03461946386A00F099
:1034C8009DFA034683F00043104A1360064B1B68BD
:1034D800064A136000BF2837BD46B0BDAFF3008071
:1034E800F1D4C853FB210940B8050020FC02002094
:1034F800A40500200003002004030020AC050020E0
:10350800080300206400002000806640B405002005
:1035180065F48E3C80B58CB000AFF860B9607A6015
:103528003B6007F114030E223B21D02000F0D1FCB0
:103538003B7D1BB21B021AB27B7D1BB21343FB857A
:10354800BB7D1BB21B021AB2FB7D1BB21343BB85AA
:103558003B7E1BB21B021AB27B7E1BB213437B85D8
:103568003B7F1BB21B021AB27B7F1BB213433B8506
:10357800BB7F1BB21B021AB2FB7F1BB21343FB8437
:1035880097F820301BB21B021AB297F821301BB2F1
:103598001343BB84B7F92E301846FDF707FC0346E2
:1035A80035491846FDF70AFD03461A463B681A6076
:1035B800B7F92C301846FDF7F9FB03462E49184693
:1035C800FDF7FCFC03461A46BB6B1A60B7F92A30B4
:1035D8001846FDF7EBFB034627491846FDF7EEFCB6
:1035E80003461A46FB6B1A60B7F928301846FDF7F0
:1035F800DDFB034621491846FDF7E0FC03461A4661
:10360800FB681A60B7F926301846FDF7CFFB03466A
:103618001A491846FDF7D2FC03461A46BB681A60D9
:10362800B7F924301846FDF7C1FB0346134918467D
:10363800FDF7C4FC03461A467B681A60B7F92830C0
:103648005B421846FDF7B2FB03460D4A1360B7F913
:1036580024301846FDF7AAFB03460A4A1360B7F957
:103668002A301846FDF7A2FB0346074A136000BF3D
:103678003037BD4680BD00BFE1FAD04433F36A4419
:1036880000030020040300200803002080B582B056
:1036980000AF78600E4B1B680D4A43F080731360CF
:1036A8000C4B00221A600C4B1B680B4A43F00103B9
:1036B800136006F0D5FC0346084AA2FB03239B0CC3
:1036C800074A1360002318460837BD4680BD00BF6F
:1036D800FCED00E0041000E0001000E083DE1B4376
:1036E800E802002098B500AF064B1C6806F0B8FC4D
:1036F8000346054AA2FB03239B09B4FBF3F31846D0
:1037080098BD00BF041000E0D34D62102DE9B04F02
:1037180088B000AF7861FFF7E5FFB8617B69FB61AE
:10372800FB6900229846914606F09AFC0346384AFF
:10373800A2FB03239B090022BB60FA60D7E902239E
:103748004FF0FF304FF00001FDF790FD02460B46A9
:10375800904579EB030305DA2E4B1B781A46FB6973
:103768001344FB61FA69BB691344FB61FB690022DE
:103778001C46154606F074FC0346254AA2FB0323A3
:103788009B0900223B607A60D7E900234FF0FF30A5
:103798004FF00001FDF76AFD02460B46A242AB411D
:1037A80016DA06F05DFC0346194AA2FB03239B09BF
:1037B80000229A46934652465B464FF001004FF06E
:1037C800FF31FDF753FD02460B46FB691344FB61CD
:1037D800FA69BB699A4207D900BFFFF783FF02461F
:1037E800FB699342F9D80DE000BFFFF77BFF024663
:1037F800FB699342F9D300BFFFF774FF0246FB69E8
:103808009342F9D800BF2037BD46BDE8B08F00BF4E
:10381800D34D62109800002080B500AF114B1B6893
:10382800104A23F0040313600E4B1B680D4A23F063
:103838000203136006F014FC03460B4AA2FB0323A1
:103848005B0D9AB2094B1A80084B1B881A46520125
:10385800D21A92001344DB009AB2054B1A8000BFBB
:1038680080BD00BF10E000E083DE1B43EC020020B7
:10387800EE02002080B483B000AF786000BF0C3740
:10388800BD4680BC7047000080B485B000AF0346D9
:10389800FB80164B1B881A46FB8803FB02F2144B6D
:1038A8005A60134B00229A60114B1B68104A43F070
:1038B800010313600E4B1B68FB60FB6803F00103F8
:1038C800002B04D0FB6803F48033002BF2D0084BA4
:1038D8001B68074A23F001031360054B00229A6016
:1038E80000BF1437BD4680BC704700BFEE02002001
:1038F80010E000E080B500AF044B00225A620421BA
:10390800034807F05BFA00BF80BD00BF0004004019
:10391800E803002080B500AF044B00225A6204215E
:10392800034807F04BFA00BF80BD00BF0008004005
:103938003004002080B485B000AF0346FB71FB79EA
:10394800002B02D0012B08D00FE00C4B5B6A1BB296
:10395800FB600A4B00225A6209E0094B5B6A1BB202
:10396800FB60074B00225A6201E00023FB60FB6802
:1039780018461437BD4680BC704700BF000400409D
:1039880000080040B0B584B000AF78603960184BCB
:10399800FB607968F868FDF75DFA03461C46F9682C
:1039A8004FF07E50FDF74CF903461D46114B1B683E
:1039B80039681846FDF74EFA03461A460E4B1B683F
:1039C80019461046FDF73EF9034619462846FDF705
:1039D80041FA034619462046FDF734F903461A46CC
:1039E800054B1A60044B1B6818461037BD46B0BD1E
:1039F8000AD7A33C2C000020F0020020B0B584B008
:103A080000AF78603960184BFB607968F868FDF79B
:103A180021FA03461C46F9684FF07E50FDF710F96D
:103A280003461D46114B1B6839681846FDF712FA04
:103A380003461A460E4B1B6819461046FDF702F955
:103A4800034619462846FDF705FA03461946204657
:103A5800FDF7F8F803461A46054B1A60044B1B6835
:103A680018461037BD46B0BD0AD7A33C2C0000202D
:103A7800F402002080B584B000AF3B4600221A60F3
:103A88005A609A60DA604FF480633B6001237B6080
:103A98000023BB600323FB603B461946034805F03F
:103AA8007FFD00BF1037BD4680BD00BF000C014040
:103AB80080B584B000AF3B4600221A605A609A6015
:103AC800DA604FF480633B6000237B600023BB60B7
:103AD8003B461946034805F063FD00BF1037BD4655
:103AE80080BD00BF000C014080B500AFFFF7C2FFEA
:103AF800104B01221A60104B1B68002B01D10023C8
:103B080015E00E4B01221A600120FFF7B3FE094BA6
:103B180000221A60084B1B68002B01D0002306E026
:103B28000120FFF7A7FE054B00221A600123184663
:103B380080BD00BFA881214228812142AC81214259
:103B480080B500AFFFF796FF094B00221A60094BBA
:103B580000221A600120FFF78DFE054B01221A6032
:103B6800044B01221A600120FFF784FE00BF80BDCC
:103B7800AC812142A881214280B582B000AF0023E8
:103B8800FB71FFF795FF134B01221A600120FFF725
:103B980071FE114B01221A600120FFF76BFE0CE049
:103BA800FB790133FB71FB79322B03D9FFF7C8FF8F
:103BB80000230AE00120FFF75DFE084B1B68002B7D
:103BC800EED1054B00221A60012318460837BD467E
:103BD80080BD00BFA8812142AC81214228812142B9
:103BE80080B500AF0A4B00221A60FFF743FF094B6C
:103BF80000221A600120FFF73DFE054B01221A60E2
:103C08000120FFF737FE024B00221A6000BF80BD7B
:103C1800AC812142A881214280B500AF0A4B002225
:103C28001A60FFF727FF094B01221A600120FFF7EE
:103C380021FE054B01221A600120FFF71BFE024BF3
:103C480000221A6000BF80BDAC812142A8812142B8
:103C580080B584B000AF0346FB71FFF70BFF144B30
:103C680000221A600023FB7319E0FB79DB09DAB242
:103C7800104B1A60FB795B00FB710120FFF7FAFD1E
:103C88000B4B01221A600120FFF7F4FD084B0022BC
:103C98001A600120FFF7EEFDFB7B0133FB73FB7B12
:103CA800072BE2D900BF00BF1037BD4680BD00BF5B
:103CB800AC812142A881214280B584B000AF3B602D
:103CC8000346FB710B46BB7113467B71FFF70CFF74
:103CD8000346002B01D1012331E0FB795B00DBB205
:103CE8001846FFF7B5FFFFF747FF0346002B03D140
:103CF800FFF726FF012322E0BB791846FFF7A8FF4C
:103D0800FFF73AFF0023FB6012E0FB683A681344B0
:103D18001B781846FFF79CFFFFF72EFF0346002B82
:103D280003D1FFF70DFF002309E0FB680133FB60B7
:103D38007B79FA689A42E8DBFFF702FF002318460E
:103D48001037BD4680BD80B582B000AF3B600346EA
:103D5800FB710B46BB7113467B71FFF7C5FE03462B
:103D6800002B01D101233FE0FB795B00DBB2184651
:103D7800FFF76EFFFFF700FF0346002B03D1FFF7A5
:103D8800DFFE012330E0BB791846FFF761FFFFF73C
:103D9800F3FEFFF7A9FEFB795B00DBB20133DBB270
:103DA8001846FFF755FFFFF7E7FE17E07B79012B71
:103DB80007D1002000F01CF803461A463B681A7029
:103DC80006E0012000F014F803461A463B681A7012
:103DD8003B6801333B607B79013B7B717B79002B2E
:103DE800E4D1FFF7ADFE002318460837BD4680BD75
:103DF80080B584B000AF0346FB710023BB73FFF7A7
:103E080057FE0023FB7318E0144B00221A600220AF
:103E1800FFF730FD114B01221A60BB7B5B00BB73BF
:103E28000F4B1B68002B02D0BB7B0133BB730220F6
:103E3800FFF720FDFB7B0133FB73FB7B072BE3D9EB
:103E4800FB79002B02D0FFF7CBFE01E0FFF7E4FE81
:103E5800BB7B18461037BD4680BD00BFAC812142F0
:103E68002881214280B584B000AF03460A46FB7121
:103E78001346BB710023FB73FFF736FEFB79184628
:103E8800FFF7E6FEFB7B0133FB73FFF775FEBB799B
:103E98001846FFF7DDFEFB7B0133FB73FFF76CFE73
:103EA800FFF722FEFB790133DBB21846FFF7D0FE9D
:103EB800FB7B0133FB73FFF75FFE0020FFF798FFE2
:103EC8000346FB73FFF73CFEFB7B18461037BD46E5
:103ED80080BD90B585B000AF3B600346FB710B46D3
:103EE800BB7113467B710023FB73FFF7FDFDFB7964
:103EF8001846FFF7ADFEFFF73FFEBB791846FFF700
:103F0800A7FEFFF739FEFFF7EFFDFB790133DBB2C0
:103F18001846FFF79DFEFFF72FFE0023FB7318E0FE
:103F2800FA7B7B79013B9A4208D0FB7B3A68D4182C
:103F38000120FFF75DFF0346237007E0FB7B3A682B
:103F4800D4180020FFF754FF03462370FB7B01338E
:103F5800FB73FA7B7B799A42E2D3FFF7F1FDFB7B97
:103F680018461437BD4690BD80B584B000AF3B609D
:103F78000346FB710B46BB7113467B710023FB7331
:103F8800FFF7B2FDFB791846FFF762FEFFF7F4FD75
:103F9800BB791846FFF75CFEFFF7EEFD0023FB73C5
:103FA8000BE0FB7B3A6813441B781846FFF750FE7A
:103FB800FFF7E2FDFB7B0133FB73FA7B7B799A42C7
:103FC800EFD3FFF7BDFD012318461037BD4680BD6E
:103FD80080B582B000AF03463A60FB710B46BB71F7
:103FE800BA79FB7911461846FFF73CFF03461A4693
:103FF8003B681A70012318460837BD4680BD80B556
:1040080082B000AF0346FB710B46BB7113467B7150
:104018007B1DB979F8790122FFF7A6FF03461846F8
:104028000837BD4680BD90B585B000AF0446084648
:1040380011461A462346FB710346BB710B467B713A
:1040480013463B7107F10E02B979FB791846FFF761
:10405800BFFF0346002B37D07B790133FF2202FADA
:1040680003F35AB27B79C3F108013B790B44013B56
:10407800FF2141FA03F35BB213435BB2FB7397F87A
:1040880020203B79C3F1080302FA03F387F82030B4
:1040980097F820207B79C3F1070342FA03F387F8E6
:1040A8002030BA7BFB7B1340DBB2BB73BA7B97F83B
:1040B80020301343DBB2BB73BA7BB979FB7918465E
:1040C800FFF79DFF034600E0002318461437BD465E
:1040D80090BD90B585B000AF0446084611461A4613
:1040E8002346FB710346BB710B467B7113463B713C
:1040F80007F10F02B979FB791846FFF769FF3B7999
:10410800002B0AD07B79012202FA03F35AB2FB7B17
:104118005BB213435BB2DBB20BE07B79012202FA9C
:1041280003F35BB2DB435AB2FB7B5BB213405BB277
:10413800DBB2FB73FA7BB979FB791846FFF75FFFAF
:10414800034618461437BD4690BD000080B584B0BC
:1041580000AF0346FB71294B93F82430002B1CD089
:10416800FB79002B02D00223FB7301E00023FB73D1
:10417800224B5B681878214B1B68D97B07F10F032A
:104188000122FFF799FD0346002B02D04FF0FF33C1
:1041980030E0FA7B194B5A742BE0184B9B7A002BB2
:1041A80002D14FF0FF3325E0FB79002B05D0134BEC
:1041B8005B7C002B01D000231CE0FB79002B02D094
:1041C8000123FB7301E00023FB730C4B5B68187839
:1041D8000A4B1B68D97B07F10F030122FFF76CFD1F
:1041E8000346002B02D04FF0FF3303E0FA7B034B6A
:1041F8005A74002318461037BD4680BD3800002089
:1042080080B582B000AF80233B70834B5B68187821
:10421800814B1B68997C3B460122FFF74DFD034605
:10422800002B02D04FF0FF33F1E06420FFF72CFBA6
:1042380000233B70784B5B681878774B1B68997C38
:104248003B460122FFF738FD0346002B02D04FF012
:10425800FF33DCE0704B5B6818786F4B1B68997D07
:104268003B460622FFF76FFD0346002B02D04FF0B6
:10427800FF33CCE07B795BB29B005BB203F00403B5
:104288005AB2FB785BB25B005BB203F002035BB22D
:1042980013435AB27B785BB203F001035BB213435A
:1042A8005BB2FB71FB79002B15D0FB79012B03D195
:1042B800594B0122DA7438E0FB79022B03D1564BB3
:1042C8000022DA7431E0FB791946544809F0E0FB22
:1042D8004FF0FF339BE0504B5B6818784E4B1B68E0
:1042E800D9783B460122FFF72EFD0346002B02D06A
:1042F8004FF0FF338BE03B7803F00F03FB71FB7942
:10430800002B05D1464809F02BFC4FF0FF337EE027
:10431800FB79042B06D1434809F022FC3E4B0122CD
:10432800DA7402E03C4B0022DA743B4BFF229A72AB
:10433800394BFF221A72384BFF225A72364BFF2232
:10434800DA72354B4FF6FF72DA81334BFF221A745B
:10435800314BFF229A74304B01221A732E4B0122E3
:1043680083F822202C4B002283F823202A4B00229A
:104378005A75294B00221A750C2200212A4809F087
:1043880001FD254B002283F82420234B002283F8CB
:104398002520214B0022DA844FF4FA6000F0F6F968
:1043A8000346002B02D04FF0FF3330E0022000F02C
:1043B8007BFA0346002B02D04FF0FF3327E02A2078
:1043C80000F016FB0346002B02D04FF0FF331EE02F
:1043D800322000F073FB0346002B02D04FF0FF336E
:1043E80015E0002000F056FC0346002B02D04FF0E9
:1043F800FF330CE0002000F0A5FD0346002B02D09F
:104408004FF0FF3303E0002000F096FC002318462D
:104418000837BD4680BD00BF38000020601F010876
:10442800881F0108D81F01084E00002080B584B0FD
:1044380000AF0346FB71FB79282B02D94FF0FF33FD
:104448006BE0FB79002B1CD1002000F041FE00231B
:104458003B7307237B73334B5B681878314B1B68BE
:10446800997C07F10C030222FFF726FC0346002B78
:1044780002D04FF0FF3350E02A4B00221A75002378
:104488004BE0012000F024FE20233B73FB79012B35
:1044980005D100237B73052000F0AAFA16E0FB790A
:1044A800052B05D801237B73052000F0A1FA0DE048
:1044B800FB79142B05D802237B730A2000F098FAA5
:1044C80004E003237B73142000F092FA7B7B5BB239
:1044D8009B015BB243F007035BB2DBB27B73114B0A
:1044E8005B6818780F4B1B68997C07F10C03022254
:1044F800FFF7E2FB0346002B02D04FF0FF330CE03E
:10450800084B08229A72074B00221A73054B0122A6
:104518001A75002000F0BEFB002318461037BD4670
:1045280080BD00BF3800002080B582B000AF7B4B53
:104538009B7A002B02D14FF0FF33EBE00023FB7195
:10454800764B5B681878754B1B68D97BFB1D01227D
:10455800FFF7B2FB0346002B02D04FF0FF33D9E040
:104568006E4B5B6818786D4B1B685979FB1D0122EF
:10457800FFF7A2FB0346002B02D04FF0FF33C9E040
:10458800664B5B681878654B1B681979FB1D01221F
:10459800FFF792FB0346002B02D04FF0FF33B9E040
:1045A8005E4B93F82430002B59D00C23FB715B4BE6
:1045B8005B681878594B1B681979FB1D0122FFF7B6
:1045C8007BFB0346002B02D04FF0FF33A2E0C02351
:1045D800FB71524B9B7A03F00103002B04D0FB794B
:1045E80043F02003DBB2FB714C4B5B6818784B4BF4
:1045F8001B681979FB1D0122FFF75EFB0346002BA0
:1046080002D04FF0FF3385E0444B5B7C002B02D097
:104618000223FB7101E00023FB71404B5B681878B3
:104628003E4B1B68D97BFB1D0122FFF745FB034668
:10463800002B02D04FF0FF336CE00023FB71374BA7
:104648005B681878354B1B685979FB1D0122FFF709
:1046580033FB0346002B5CD04FF0FF335AE00423B2
:10466800FB712E4B5B6818782C4B1B681979FB1D66
:104678000122FFF721FB0346002B02D04FF0FF3346
:1046880048E0264B9B7C002B05D1244B9B7A03F0FA
:104698000103002B02D14023FB7101E06023FB7171
:1046A8001E4B5B6818781D4B1B681979FB1D01228E
:1046B800FFF702FB0346002B02D04FF0FF3329E03F
:1046C800164B5B7C002B02D00123FB7101E0002319
:1046D800FB71124B5B681878104B1B68D97BFB1D6C
:1046E8000122FFF7E9FA0346002B02D04FF0FF330F
:1046F80010E00A4B5B681878084B1B685979084B1F
:104708000122FFF7D9FA0346002B02D04FF0FF33FE
:1047180000E0002318460837BD4680BD3800002059
:104728004800002080B483B000AF7860164B1B7A35
:10473800032B1ED801A252F823F000BF55470008EA
:104748005D47000867470008714700087B68FA2240
:104758001A8012E07B684FF4FA721A800DE07B68C9
:104768004FF47A721A8008E07B684FF4FA621A8074
:1047780003E07B6800221A8000BF002318460C372C
:10478800BD4680BC704700BF3800002080B584B0AB
:1047980000AF0346FB80264B9B7A002B02D14FF0DB
:1047A800FF3341E0FB88B3F5FA6F17D0B3F5FA6F22
:1047B80017DCB3F57A7F0ED0B3F57A7F11DCFA2BCC
:1047C80003D0B3F5FA7F03D00BE00023FB730BE0B3
:1047D8000823FB7308E01023FB7305E01823FB7321
:1047E80002E04FF0FF331FE0114B1A7AFB7BDB0826
:1047F800DBB29A4201D1002316E00D4B5B681878B2
:104808000B4B1B68997907F10F030122FFF754FA44
:104818000346002B02D04FF0FF3305E0FB7BDB089B
:10482800DAB2034B1A72002318461037BD4680BD12
:104838003800002080B483B000AF7860194B5B7AF1
:10484800032B1BD801A252F823F000BF65480008CB
:104858006D480008754800087D4800087B680222FA
:104868001A700EE07B6804221A700AE07B6808223E
:104878001A7006E07B6810221A7002E04FF0FF33CE
:104888000AE0084BDB7C002B05D07B681B785B00BB
:10489800DAB27B681A70002318460C37BD4680BC14
:1048A800704700BF3800002080B584B000AF0346D1
:1048B800FB71304B9B7A002B02D14FF0FF3354E051
:1048C800FB79023B0E2B2DD801A252F823F000BF32
:1048D800154900082D4900081B4900082D49000802
:1048E8002D4900082D490008214900082D490008D4
:1048F8002D4900082D4900082D4900082D490008B8
:104908002D4900082D490008274900080023FB739A
:104918000BE00823FB7308E01023FB7305E0182362
:10492800FB7302E04FF0FF331FE0124B5A7AFB7B18
:10493800DB08DBB29A4201D1002316E00D4B5B681D
:1049480018780C4B1B68D97907F10F030122FFF780
:10495800B3F90346002B02D04FF0FF3305E0FB7B91
:10496800DB08DAB2034B5A72002318461037BD46EB
:1049780080BD00BF3800002080B483B000AF7860ED
:104988001A4BDB7A013B052B26D801A252F823F0FB
:10499800B1490008B9490008C1490008C9490008D7
:1049A800D1490008D94900087B68BC221A8017E061
:1049B8007B6862221A8013E07B682A221A800FE043
:1049C8007B6814221A800BE07B680A221A8007E0B1
:1049D8007B6805221A8003E07B6800221A8000BFEA
:1049E800002318460C37BD4680BC704738000020AD
:1049F80080B584B000AF0346FB80234B9B7A002B25
:104A080002D14FF0FF333BE0FB88BB2B02D90123D7
:104A1800FB7319E0FB88612B02D90223FB7313E0B7
:104A2800FB88292B02D90323FB730DE0FB88132B8A
:104A380002D90423FB7307E0FB88092B02D905235D
:104A4800FB7301E00623FB730F4BDA7AFB7B9A4278
:104A580001D1002314E00C4B5B6818780A4B1B68E3
:104A6800997807F10F030122FFF726F90346002B77
:104A780002D04FF0FF3303E0FA7B034BDA720023D6
:104A880018461037BD4680BD3800002080B483B07A
:104A980000AF7860084B93F82430002B02D04FF019
:104AA800FF3304E0044BDA897B681A800023184638
:104AB8000C37BD4680BC70473800002080B584B0F4
:104AC80000AF0346FB802F4B9B7A002B02D14FF09F
:104AD800FF3353E02B4B93F82430002B02D04FF0D8
:104AE800FF334BE0274B1B7D002B0FD0FB88002B9F
:104AF80009D0FB88282B06D8FB88DBB21846FFF7BD
:104B080095FC00233AE00020FFF790FCFB88032B7C
:104B180002D80423FB8006E0FB88B3F57A7F02D92C
:104B28004FF47A73FB80FB884FF47A7292FBF3F3AD
:104B3800DBB2013BDBB2FB73124B5B681878114B9D
:104B48001B68597807F10F030122FFF7B5F80346F0
:104B5800002B02D04FF0FF3310E0FB7B01334FF402
:104B68007A7292FBF3F39AB2064BDA81054BDB8932
:104B78005B089BB21846FFF73BFF00231846103727
:104B8800BD4680BD3800002080B483B000AF786097
:104B9800144B1B7A032B1BD801A252F823F000BF39
:104BA800B94B0008C14B0008C94B0008D14B00089D
:104BB8007B680D4A1A600EE07B680C4A1A600AE0AE
:104BC8007B680B4A1A6006E07B680A4A1A6002E0B2
:104BD8004FF0FF3300E0002318460C37BD4680BC79
:104BE800704700BF380000200000034300008342E4
:104BF800333303423333834180B483B000AF7860EA
:104C08001B4B5B7A032B1FD801A252F823F000BF7D
:104C1800294C0008334C00083D4C0008474C00085C
:104C28007B684FF480421A8011E07B6841F69C72E1
:104C38001A800CE07B684FF480521A8007E07B688A
:104C48004FF400621A8002E04FF0FF330AE0084B8D
:104C5800DB7C002B05D07B681B885B089AB27B68DD
:104C68001A80002318460C37BD4680BC704700BF29
:104C78003800002080B483B000AF7860044B1A7C01
:104C88007B681A70002318460C37BD4680BC7047F5
:104C98003800002080B584B000AF0346FB710023C4
:104CA800FB60FB7923F00103FB71224B93F824305E
:104CB800002B01D0002338E01E4B9B7A002B02D139
:104CC8004FF0FF3331E01B4B1B7CFB72194B9A7A78
:104CD800FB791340DAB2174B1A74164B1B7CFA791E
:104CE8009A4203D04FF0FF33FB6001E00023FB60E2
:104CF800FB79002B03D10F4B1B7D002B03D0012028
:104D0800FFF724FA02E00020FFF720FAFB79002BD6
:104D18000AD0FFF709FC0346002B05D0054AFB7AA9
:104D280013744FF0FF3300E0FB6818461037BD4698
:104D380080BD00BF3800002080B584B000AF0346B6
:104D4800FB71FB7903F07003002B02D00123FB7386
:104D580007E0FB79002B02D00023FB7301E040231E
:104D6800FB73374B5B681878354B1B68997C07F1E8
:104D78000F030122FEF7A0FF0346002B05D0304B9E
:104D880000229A724FF0FF3356E0FB7B23F040037A
:104D9800DAB22B4B1A730023FB73FB7903F0400341
:104DA800002B04D1FB7B43F00403DBB2FB73FB79DC
:104DB80003F02003002B04D1FB7B43F00203DBB29A
:104DC800FB73FB7903F01003002B04D1FB7B43F04A
:104DD8000103DBB2FB73FB7903F00803002B04D15A
:104DE800FB7B43F03803DBB2FB73154B5B68187829
:104DF800134B1B68D97C07F10F030122FEF75CFFF8
:104E08000346002B05D00E4B00229A724FF0FF3359
:104E180012E0FB79002B05D0FB79082B02D000208B
:104E280000F056F9064AFB799372054B00221A7571
:104E38003220FEF729FD002318461037BD4680BDF5
:104E48003800002080B586B000AF0346B9607A60AC
:104E5800FB813B4B93F82430002B02D14FF0FF33FA
:104E680069E0374B9B7A002B02D14FF0FF3362E0A9
:104E7800334B5B681878324B1B68997A07F1140337
:104E88000222FEF760FF0346002B02D04FF0FF33EB
:104E980051E03B7D1BB21B021AB27B7D1BB2134350
:104EA8001BB2FB82FA8AFB899A4205D27B680022F0
:104EB8001A704FF0FF333EE0214B5B685B885B085C
:104EC8009BB2FA8A9A421AD91D4B5B6818781C4B18
:104ED8001B68597C07F114030122FEF734FF0346CF
:104EE800002B02D04FF0FF3325E03B7D03F0100389
:104EF800002B04D0FFF718FB6FF001031BE0104BE9
:104F08005B6818780E4B1B68D97AFB89DAB2BB68E4
:104F1800FEF719FF0346002B02D04FF0FF330AE0DB
:104F2800FA8AFB89B2FBF3F39BB2DBB2013BDAB23C
:104F38007B681A70002318461837BD4680BD00BF2D
:104F48003800002080B584B000AF0346FB715F4B8A
:104F58009B7CFA799A4201D10023B2E0FB79002BBD
:104F680050D05A4B5B681878584B1B68197907F171
:104F78000F030122FEF7E7FE0346002B02D04FF095
:104F8800FF339EE0FB7B23F02003DBB2FB734F4B28
:104F98005B6818784D4B1B68197907F10F030122DC
:104FA800FEF78AFE0346002B02D04FF0FF3388E05D
:104FB8000320FEF769FC0223FB73444B93F822306D
:104FC800002B04D0FB7B63F07F03DBB2FB733F4B0A
:104FD80093F82330002B04D0FB7B43F03003DBB283
:104FE800FB733A4B5B681878384B1B68197D07F1DF
:104FF8000F030122FEF760FE0346002B5DD04FF041
:10500800FF335EE0314B5B681878304B1B681979C9
:1050180007F10F030122FEF796FE0346002B02D08C
:105028004FF0FF334DE0294B9B7A03F00103002B2F
:1050380005D0FB7B43F02003DBB2FB7304E0FB7B72
:1050480023F02003DBB2FB73204B5B6818781F4BFF
:105058001B68197907F10F030122FEF72DFE03469D
:10506800002B02D04FF0FF332BE00320FEF70CFC9F
:10507800164B93F82230002B02D08023FB7301E0FB
:105088000023FB73114B93F82330002B04D0FB7BD8
:1050980043F03003DBB2FB730C4B5B6818780B4BA7
:1050A8001B68197D07F10F030122FEF705FE034671
:1050B800002B02D04FF0FF3303E0044AFB799374CE
:1050C800002318461037BD4680BD00BF38000020B9
:1050D80080B584B000AF0346FB711E4B93F82330B4
:1050E800FA799A4201D1002330E0FB79002B02D0F3
:1050F8003023FB7301E00023FB73164B9B7C002BD2
:1051080004D0FB7B43F00203DBB2FB73114B93F833
:105118002230002B04D0FB7B63F07F03DBB2FB73F0
:105128000C4B5B6818780B4B1B68197D07F10F0354
:105138000122FEF7C1FD0346002B02D04FF0FF33DA
:1051480004E0044AFB7982F823300023184610371C
:10515800BD4680BD3800002090B587B000AF7860AC
:10516800404B5B68187807F1100304220D21FEF705
:10517800EAFD0346002B01D007236FE03B7CDB10E0
:105188005BB203F01C035AB2FB7C1B115BB203F049
:1051980003035BB213435BB2DBB23B737B7CDB1074
:1051A8005BB203F01C035AB2FB7C9B105BB203F0AA
:1051B80003035BB213435BB2DBB27B73BB7CDB10D4
:1051C8005BB203F01C035AB2FB7C5BB203F003032F
:1051D8005BB213435BB2DBB2BB730023FB7539E0F0
:1051E800FB7D18333B4413F80C3C002B07D1FB7DA7
:1051F8009B007A6813444FF000021A6027E0FB7D99
:105208009B007A681344184A1A600DE0FB7D9B00E6
:105218007A6813441868FB7D9B007A68D418134990
:10522800FBF718FE03462360FB7D03F118023A449E
:1052380012F80C2C013AD1B203F118023A4402F8E0
:105248000C1C18333B4413F80C3C002BDED1FB7DBF
:105258000133FB75FB7D022BC2D9002318461C378E
:10526800BD4690BD380000207B14AE3E1D5A843FD9
:1052780080B58AB000AF7860396000233B6207F1DF
:105288000C031846FFF768FF00237B6265E07B6A22
:105298009B007A6813441A687B6A9B0039680B4440
:1052A8001B68D31A002BB8BF5B421846FBF77EFD7C
:1052B80003464FF08F411846FBF780FE0346FB611B
:1052C8007B6A9B0028333B4453F81C3C4FF0000199
:1052D8001846FBF753FF0346002B24D17B6A9B003B
:1052E80028333B4453F81C3C1946F869FBF766FE23
:1052F80003464FF07E511846FBF7A2FC0346BB61FC
:10530800BB6923F00043194A11461846FBF75EFFB4
:105318000346002B1ED001227B6A02FA03F33A6A85
:1053280013433B6216E0124B1946F869FBF730FF4E
:105338000346002B07D10F4B1946F869FBF746FFC8
:105348000346002B06D001227B6A02FA03F33A6A6D
:1053580013433B627B6A01337B627B6A022B96DDD7
:105368003B6A18462837BD4680BD00BF295C0F3E02
:105378009A99993E3333733F80B588B000AF78600F
:1053880039600023BB61544B5B68187807F1080348
:1053980003220D21FEF7D7FC0346002B01D007237B
:1053A80095E03B7A03F01F03DBB23B727B7A03F094
:1053B8001F03DBB27B72BB7A03F01F03DBB2BB7245
:1053C8000023FB617EE0FB699B007A6813441A683E
:1053D800FB699B0039680B441B68D31A002BB8BFC4
:1053E8005B421846FBF7E2FC03464FF08F41184634
:1053F800FBF7E4FD03463B6107F10802FB69134430
:105408001B78002B44D083231846FBF7CBFC0346BC
:1054180019463248FBF7D2FD03467B6105E0304967
:105428007869FBF717FD03467B6107F10802FB6902
:1054380013441B78013BD9B207F10802FB691344F6
:105448000A461A7007F10802FB6913441B78002BFF
:10545800E5D179693869FBF7B1FD03464FF07E5114
:105468001846FBF7EDFB0346FB60FB6823F000439F
:105478001C4A11461846FBF7A9FE0346002B1ED00E
:105488000122FB6902FA03F3BA691343BB6116E010
:10549800154B19463869FBF77BFE0346002B07D1ED
:1054A800124B19463869FBF791FE0346002B06D0CC
:1054B8000122FB6902FA03F3BA691343BB61FB6972
:1054C8000133FB61FB69022B7FF77DAFBB6918468F
:1054D8002037BD4680BD00BF3800002000B04C45D5
:1054E80054E3853F295C0F3E000020410000D24272
:1054F8002DE9B04FB8B000AFC7F8B400C7F8B01086
:10550800134687F8AF30012387F8CC30002387F89B
:10551800CD30A54B5B681878A34B1B68997C07F1C5
:10552800CC030222FEF7C8FB0346002B02D04FF043
:10553800FF3351E3C820FEF7A7F9002387F8CC30E2
:10554800994B5B681878984B1B68D97B07F1CC039B
:105558000122FEF7B1FB0346002B02D04FF0FF33C8
:105568003AE3914B5B6818788F4B1B68597907F1C0
:10557800CC030122FEF7A0FB0346002B02D04FF01C
:10558800FF3329E3884B5B681878874B1B68997C45
:1055980007F1CC030122FEF78FFB0346002B02D054
:1055A8004FF0FF3318E3804B5B6818787E4B1B681D
:1055B800D97D07F1CC030122FEF77EFB0346002BC1
:1055C80002D04FF0FF3307E3774B5B681878764BD0
:1055D8001B68197907F1CC030122FEF76DFB03461E
:1055E800002B02D04FF0FF33F6E20C2387F8CC30C3
:1055F8006D4B5B6818786C4B1B68197907F1CC0305
:105608000122FEF759FB0346002B02D04FF0FF336F
:10561800E2E20F20FEF738F9634B9B6A5B7A87F862
:10562800CC30614B5B6818785F4B1B68997807F141
:10563800CC030122FEF740FB0346002B02D04FF0BB
:10564800FF33C9E2584B9B6A1B7A87F8CC30564B1C
:105658005B681878544B1B68597807F1CC03012212
:10566800FEF72AFB0346002B02D04FF0FF33B3E2CC
:1056780097F8AF30002B08D04B4B9B6A9B7A63F0AE
:105688001F03DBB287F8CC3004E0474B9B6A9B7A58
:1056980087F8CC30444B5B681878434B1B68997982
:1056A80007F1CC030122FEF707FB0346002B02D0CB
:1056B8004FF0FF3390E297F8AF30002B08D03A4B09
:1056C8009B6ADB7A63F01F03DBB287F8CC3002E019
:1056D800182387F8CC30344B5B681878324B1B683A
:1056E800D97907F1CC030122FEF7E6FA0346002B2D
:1056F80002D04FF0FF336FE297F8AF30002B02D0A3
:10570800C820FEF7C1F8402387F8CC30264B5B68E9
:105718001878254B1B68197907F1CC030122FEF78D
:10572800CBFA0346002B02D04FF0FF3354E2782324
:1057380087F8CC301C4B5B6818781B4B1B68597971
:1057480007F1CC030122FEF7B7FA0346002B02D07B
:105758004FF0FF3340E232231846FEF795F8002356
:1057680087F8CC30104B5B6818780F4B1B68597959
:1057780007F1CC030122FEF79FFA0346002B02D063
:105788004FF0FF3328E2084B5B681878064B1B681C
:10579800997A07F1CC030222FEF7D5FA0346002BCB
:1057A80004D04FF0FF3317E23800002097F8CC30D0
:1057B8001BB21B021AB297F8CD301BB213431BB2AF
:1057C800A7F8DC30B7F8DC201C4BA3FB0223DB086E
:1057D8009BB287F8DB30D7F8B43003F10801002317
:1057E8000B60D7F8B4301A1D0B6813601268D7F82D
:1057F800B4301A60D7F8B03003F1080100230B6009
:10580800D7F8B0301A1D0B6813601268D7F8B0309B
:105818001A60002387F8DF30A5E0094B5B68187829
:10582800074B1B68D97A07F1CC030C22FEF78BFAD9
:105838000346002B06D04FF0FF33CDE1ABAAAAAA4E
:105848003800002097F8CC301BB21B021AB297F828
:10585800CD301BB213431BB2A7F8C43097F8CE3033
:105868001BB21B021AB297F8CF301BB213431BB2FC
:10587800A7F8C63097F8D0301BB21B021AB297F8B7
:10588800D1301BB213431BB2A7F8C830D7F8B030D9
:105898001A68B7F9C4301A44D7F8B0301A60D7F884
:1058A800B03004331968B7F9C6301846D7F8B030A5
:1058B8001A1D0B181360D7F8B03008331968B7F9F8
:1058C800C8301846D7F8B03003F108020B18136037
:1058D80097F8D2301BB21B021AB297F8D3301BB21A
:1058E80013431BB2A7F8BC3097F8D4301BB21B0285
:1058F8001AB297F8D5301BB213431BB2A7F8BE30C3
:1059080097F8D6301BB21B021AB297F8D7301BB2E1
:1059180013431BB2A7F8C030D7F8B4301A68B7F9E8
:10592800BC301A44D7F8B4301A60D7F8B43004330E
:105938001968B7F9BE301846D7F8B4301A1D0B18D5
:105948001360D7F8B43008331968B7F9C03018466F
:10595800D7F8B43003F108020B18136097F8DF305A
:10596800013387F8DF3097F8DF2097F8DB309A4269
:10597800FFF453AFD7F8B4301B68DA171C46154646
:105988002314C7F8A4302304C7F8A03083220023C7
:10599800C7F89820C7F89C30D7E92623D7E928010B
:1059A800FBF764FC02460B461046194697F8DB30B5
:1059B8000022C7F89030C7F89420D7E92423FBF7D2
:1059C80055FC02460B46D7F8B4301A60D7F8B43005
:1059D80004331B68DA17984691464FEA2843C7F8FC
:1059E8008C304FEA0843C7F8883083220023C7F871
:1059F8008020C7F88430D7E92023D7E92201FBF7B4
:105A080035FC02460B461046194697F8DB30002253
:105A1800BB67FA67D7E91E23FBF728FC02460B464B
:105A280010461946D7F8B4301A1D03461360D7F844
:105A3800B43008331B68DA179A4693464FEA2A436C
:105A48007B674FEA0A433B6783220023BA66FB66FB
:105A5800D7E91A23D7E91C01FBF708FC02460B46D5
:105A68001046194697F8DB3000223B667A66D7E97C
:105A78001823FBF7FBFB02460B4610461946D7F8DE
:105A8800B43003F1080203461360D7F8B0301B683E
:105A9800DA17BB65FA65D7E916120B461B147B6546
:105AA8000B461B043B654FF400620023BA64FB6499
:105AB800D7E91223D7E91401FBF7D8FB02460B46B6
:105AC8001046194697F8DB3000223B647A64D7E920
